:020000040000fa
:080000000002040000000000f2
:020000040000fa
:10000800d6030000d6030000d6030000d603000084
:10001800d6030000d6030000d6030000d603000074
:10002800d6030000d6030000d6030000da02000061
:10003800d6030000d6030000d6030000d603000054
:10004800d6030000d6030000d60300009402000087
:10005800d6030000d6030000d6030000d603000034
:10006800d6030000d6030000d6030000d603000024
:10007800d6030000d6030000d6030000d603000014
:10008800d6030000d6030000d6030000d603000004
:10009800d6030000d6030000d6030000d6030000f4
:1000a800d6030000d6030000d6030000d6030000e4
:1000b800d6030000d6030000d6030000d6030000d4
:1000c800d6030000d6030000d6030000d6030000c4
:1000d800d6030000d6030000d6030000d6030000b4
:1000e800d6030000d6030000d6030000d6030000a4
:1000f800d6030000d6030000d6030000d603000094
:10010800d6030000d6030000d6030000d603000083
:10011800d6030000d6030000d6030000d603000073
:10012800d6030000d6030000d6030000d603000063
:10013800d6030000d6030000d6030000d603000053
:10014800d6030000d6030000d6030000d603000043
:10015800d6030000d6030000d6030000d603000033
:10016800d6030000d6030000d6030000d603000023
:10017800d6030000d6030000d6030000d603000013
:10018800d6030000d6030000d6030000d603000003
:10019800d6030000d6030000d6030000d6030000f3
:1001a800d6030000d6030000d6030000d6030000e3
:1001b800d6030000d6030000d6030000d6030000d3
:1001c800d6030000d6030000d6030000d6030000c3
:1001d800d6030000d6030000d6030000d6030000b3
:1001e800d6030000d6030000d6030000d6030000a3
:0801f800d6030000d60300004d
:020000040000fa
:10020800d6030000d6030000d6030000d603000082
:10021800d6030000d6030000d6030000d603000072
:10022800d6030000d6030000d6030000da0200005f
:10023800d6030000d6030000d6030000d603000052
:10024800d6030000d6030000d60300009402000085
:10025800d6030000d6030000d6030000d603000032
:10026800d6030000d6030000d6030000d603000022
:10027800d6030000d6030000d6030000d603000012
:10028800d6030000d6030000d6030000d603000002
:10029800d6030000d6030000d6030000d6030000f2
:1002a800d6030000d6030000d6030000d6030000e2
:1002b800d6030000d6030000d6030000d6030000d2
:1002c800d6030000d6030000d6030000d6030000c2
:1002d800d6030000d6030000d6030000d6030000b2
:1002e800d6030000d6030000d6030000d6030000a2
:1002f800d6030000d6030000d6030000d603000092
:10030800d6030000d6030000d6030000d603000081
:10031800d6030000d6030000d6030000d603000071
:10032800d6030000d6030000d6030000d603000061
:10033800d6030000d6030000d6030000d603000051
:10034800d6030000d6030000d6030000d603000041
:10035800d6030000d6030000d6030000d603000031
:10036800d6030000d6030000d6030000d603000021
:10037800d6030000d6030000d6030000d603000011
:10038800d6030000d6030000d6030000d603000001
:10039800d6030000d6030000d6030000d6030000f1
:1003a800d6030000d6030000d6030000d6030000e1
:1003b800d6030000d6030000d6030000d6030000d1
:1003c800d6030000d6030000d6030000d6030000c1
:1003d800d6030000d6030000d6030000d6030000b1
:1003e800d6030000d6030000d6030000d6030000a1
:0803f800d6030000d60300004b
:020000040000fa
:100400000f8a20000e7f24000e01880000000000eb
:1004100000012000200288000c000700e02f2100ce
:100420000100200011000700000020000000e00093
:100430000200320000000200000000001c03020065
:10044000000000000040da000000fe004440a90067
:10045000400920000000e0000300320000002000fe
:10046000a00188004440a800000006009101880017
:10047000800078000000eb0015003700e2804000ab
:1004800032a0b4009101ba00e280400032a0b40072
:100490009102ba00e280400032a0b4000002eb00fa
:1004a000472bde00f507b200602ce10004003a00a3
:1004b0000059eb008301e900fdff3e000400370016
:1004c0006128e100010032000082eb000400070017
:1004d0001101ba000200e000e8ff3a000000060047
:1004e0003159ba008301e9000c0032002159ba00e9
:1004f0008301e900080032000400e00003003a0034
:10050000e280400032a0b400f5ff370011d9ba00f4
:100510008301e900faff3a008100e800e180400031
:1005200032a0b40000000600801f7800849fbe0047
:10053000861f78000000fa008560a9003411800051
:10054000e44488000002eb00744488000c0037008b
:1005500076448000744480008402e80074812000a6
:100560000482420014427800758120008502430015
:10057000844a7800744480000402e80074448800cf
:100580007544800024062000848f5200f0ff340060
:10059000e444800004427800044078007ae8b70020
:1005a0000080fa004f0378004f02be004f00780031
:1005b00000400600801f7800849fbe000000fa0003
:1005c0000002eb00040888008460a90094448000c5
:1005d0000402e8009444880044448000e00f520084
:1005e00003003200444480000402e90044448800cf
:1005f00044448000e00f520003003a0014c0b300ee
:10060000044078008ae8b7009544800084382100cf
:10061000848f520004003a001400200084448800b3
:100620000002eb00944488000080fa004f02be00f4
:100630004f007800004006000000fa00881f780094
:10064000cf0707000308070081040700d30707004e
:10065000e90407000002eb00644488008444800041
:10066000e00f5200170032000002eb0084448800c3
:10067000a6448000b7448000c4448000d544800074
:100680000401be000600be004b0007000002be00d1
:1006900002002000030024000400be00a3000700a5
:1006a0000002be00a4448800b5448800a444800031
:1006b000b544800013002000128820000400be0012
:1006c00069070700a4448000b544800018c0b30047
:1006d0006011b8000400be00fc00070000027800b2
:1006e000e00f520001003a000044eb00084278009d
:1006f0000404a200e04f520004003200d3060700b9
:100700000002be00a4448800b5448800cf0607005c
:100710000002be00c4448800d5448800c444800060
:10072000d544800013002000b28720000400be00e2
:100730004d0707006444800005002000560020009b
:1007400007002000860f5200878f5a0013003e00da
:10075000046001000500370006003700070037007d
:1007600008003700090037000a003700d9040700e5
:100770000d003700fa0407000b0037001b050700c7
:10078000090037004305070007003700a6050700ea
:100790000500370019060700030037000002eb00d0
:1007a00064448800adff3700acff37000040da003a
:1007b0000000fe0003f0a200889fbe008a9fbe00da
:1007c0008c1f7800fe000700050133006450e10033
:1007d0004f0032006420e1005200320003826c00be
:1007e00007003b000905d0000306d000820f54002b
:1007f0000c065d0002003900020032008901780019
:10080000030678008582550004003d000003fd00ca
:100810008103fd008502ea008b854200840f72008f
:1008200002003b0060001000e08018006011b8007a
:100830000005eb007a28e1000a0039000600780084
:10084000c75ddd00f707b200878075002d00370017
:10085000828171000a017800610560008180d10009
:100860000080d3008502e900f9ff3b000604400048
:100870008784480002003b0060041400e0841c00f0
:100880000988a300070032008a817100828171000b
:10089000610164008904d1000884d3008b05e8005d
:1008a000170037000978a30013003a000b00e0009e
:1008b000130034008b05e9000804440089844c00cf
:1008c0000a4474000978a3000d003a000b00e00010
:1008d000070034008b05e9000804440089844c00bb
:1008e00001003a000b0020000978a300f7ff320056
:1008f0000001eb0002003700828171000a017800dc
:10090000740007000cf0a70001f0a000bd00370044
:100910006420e10002003a00838f6c00bd003300c8
:100920000801be000200be00b6003700889fbe006e
:100930008a9fbe008c1f7800a1000700a80033002a
:1009400003866c006450e1002e0032006420e10058
:10095000330032006150e1002f0032006120e100dd
:100960003100320085855500eb07b00009002000fa
:1009700008042000050037000804440089844c0066
:100980000a0031000603430087834b000001530037
:1009900081815b00f8ff33000203be000800a00065
:1009a0000804440089844c00f6ff3900c639dd0094
:1009b0008301730001003200130020008904d1007c
:1009c0000884d3000998a300050032000800a7009e
:1009d0000300a0008904d1000884d3008b05e8003f
:1009e0008904d1000884d3000001eb000281d20009
:1009f0003800070001f0a1000cf0a70001f0a000f2
:100a0000800037006420e100820032000801be004f
:100a10000200be00f7ff37006120e1007d003200d8
:100a20006000b800f3ff37000000200001f8270045
:100a3000f0ff37000001be004c0007000470a70063
:100a400003f0a1006509b100160032000d00350069
:100a50006828e10006003500f0ff2f00f1ff2700b5
:100a60000300e00013003b00010028000000050027
:100a700000004000818048008502e900fcff3a0048
:100a800008003700f88f420002003c008000eb00b5
:100a9000000005008100d1000080d3008502e8003d
:100aa000fcff3a000300e00002003b006000100081
:100ab000e0801800000006004f89de008201780007
:100ac000230237006011b800310237000400200013
:100ad0000002370081002000618055000b003d00be
:100ae0000b00200061fe2f000100e1001d0034001a
:100af00082817100610164008904d1000884d300ff
:100b00000000e800faff3a00710020006100640074
:100b1000030070000200600009003200610444001c
:100b2000e0844c000988a500050032008b05e80030
:100b30006808e10002003a008904d1000884d3006b
:100b4000f20f20000258e10005003d00c75ddd0006
:100b5000f907b200898075000800780000000600df
:100b60000bf827008b00780000000500c70ade00a4
:100b7000f107b200f50fb20008003200e1cf4200e9
:100b8000020032000170a00024000500810f7000f7
:100b9000010032000408050044000500810f7000c8
:100ba00002003a00140005008502e9000000400040
:100bb00081c04800fcff3b000170a000240005003c
:100bc0000004be00e9ff07000003be000405be00ec
:100bd0000200be00e5ff0700844f7500000006001c
:100be0000200be006450e100050036006420e10010
:100bf000020036000968a30001003a000800be00a8
:100c00000160a0004f0678004f05be004f04be00f3
:100c100000000600f0ff2f00f1ff2700f9ff37006a
:100c2000889fbe008a9fbe008c1f7800e4ff0700eb
:100c3000ebff330003866c006450e10024003200b7
:100c40006420e100270032006150e1002200320000
:100c50006120e100210032008b854200eb07b100ea
:100c60000134b800003ab8000804420089844a0000
:100c7000013ab8000030b8008880400009014a00fd
:100c80000400330000004000818048000201490058
:100c90008b05e900c909dd00830170000100320005
:100ca00013002000c814de004814dd004709de00f0
:100cb0001200b200c808de000884700085ff07003b
:100cc00001f0a1000cf0a70001f0a000cdff37005b
:100cd0006120e100cfff32000801be000200be002b
:100ce000f7ff37006150e100fcff3a00c9ff370011
:100cf0000c00fa00889fbe008a9fbe008c9fbe0039
:100d0000afff07000206be00840578000200be00a7
:100d1000020020004801070005003a008b02b300e2
:100d2000120020004401070001003a00f8856d0020
:100d30000c01be00c60007000800be009b00320088
:100d40000b08a3009e003a000df0a7000be0a000e6
:100d500009f0a7000bf0a00009f0a1000801be00f7
:100d6000bb0007000bf0a6009500320001003c001c
:100d70000bd0a0008acf7500b20033006000b8002d
:100d80006250e10099003900a1003e000b28a30049
:100d9000a2003a000bf8a300060032000b58a30093
:100da000a70032000801be00a90007000800be002d
:100db000940032000800be00b00007000004be002e
:100dc000050578000bf0a7000b30a6000bf0a10082
:100dd0005b079800324f200053f3230058010700af
:100de00005003d000800be0012002000970107002a
:100df0000004be000a05e9004a0798006150b900e6
:100e00002dff0700008fbe000c01be0084ff07000d
:100e100008ff0700300798000100e00002003d00d5
:100e200060001000e0801800f2ff2700820f5000e1
:100e3000e08f580064003e000c00be00fdfe07007d
:100e400020079800f2072000820f5000e08f580022
:100e500005003c0012f82f00f3ff2f00820f500016
:100e6000838f580009003d000a00e00003003200b3
:100e700001003c000201ea00020578006000b800b1
:100e8000200798003a079800190037003e009000ac
:100e90006100b90008ff0700809fbe000c00be0083
:100ea0004109dd004811de007208b100e2000700d0
:100eb0000005be001e01be0059ff07004f01be0025
:100ec0003cfe0700809fbe000c00be000a01be0071
:100ed00038fe07001e01be0051ff07004f01be0093
:100ee00035fe07008221270013f323004cff070083
:100ef0000005be002e0090006100b900eefe070064
:100f000001f0a2000c01be002bfe07000006be008f
:100f10000800be006f0107000c01be0040ff070083
:100f20000a01be0024fe0700809fbe004a000700a1
:100f30002e0590000af0a7000a05ea000500370018
:100f40000800be000801be0035ff07000004be0017
:100f50000c00be000801be000a00a70030ff070019
:100f60000006be000a05d100f5ff3a005e019000c0
:100f700002e0a600030037000001be0036000700b3
:100f80006afe07000004be004f00be0048000700d4
:100f90000801be0022ff07003e0190002b01070060
:100fa000de0590000bf0a70001f0a2004f06be0086
:100fb0004f05be004f04be000080fa00000006008e
:100fc00025000700f9ff3700270007006000b80080
:100fd0000bd0a7000bc0a0000be0a7000bc0a20025
:100fe0000bc0a70001f82700f0ff37000df8a300a1
:100ff000020032001e000700190007000bf8a300d2
:10100000eaff32000b30a70001f0a200e7ff370033
:101010000df8a300f9ff3a00f7ff37000801be0002
:101020000b000700e6ff320001003c000df0a200bb
:101030006000b8000df0a70009000700dbff3700d3
:101040000b000700f1ff2700f0ff2f00d7ff37004c
:1010500001000700ba00370001f823000000050076
:1010600001f82700000005002002200001003700e1
:1010700010022000f0448800000006000003be00bb
:10108000bafe07006220e100020032000600be0046
:1010900005000500e507b100f107b20004f02300e8
:1010a0008480700007f0a70001f0a0002400050074
:1010b000889fbe008a9fbe008c9fbe000004be00b9
:1010c000aafe07000800be006420e10048003e00c0
:1010d0005500320072212700132b24009a000700cc
:1010e00047003c000800be00c2ec2800e32c2c00a6
:1010f00093000700470035000800be0001f0a10082
:1011000002002000033823008d0007004300350053
:101110000800be00b2a32a0083fb2300c0fe070024
:101120000200200003f0230001f0a70003f0a0005c
:10113000a1fd07003ffe07000005be005efe0700a0
:1011400001f0a2000006be000200280013f32300f5
:10115000b3fe07000801be0097fd0700809fbe0098
:101160000c00be0032082800e3952b00acfe0700ff
:101170004f01be0090fd07000006be000001be004a
:10118000a7fe0700809fbe004241250083b82300d0
:10119000a3fe07000200200003e8230086fd0700ed
:1011a0000c01be009efe07000006be004f00be0000
:1011b000f2f92b00c3d4230099fe0700020020009f
:1011c00003f023007cfd07000c01be0079fd070041
:1011d0000001be000c00be00d4fd0700020020008c
:1011e00003f0230074fd070061014500970007002c
:1011f0004f06be004f05be004f04be0000000600b3
:1012000001f827000000200022022000f24488009c
:10121000f7ff37006000b800fbff370001f823003c
:1012200000002000f2ff370009f8a300f0ff3200b1
:101230006000b800eeff3700889fbe008a9fbe00a6
:101240000003be0049fe0700850578008281520038
:10125000020020006220e10004003a00f307b10020
:10126000040035007718e100040035000600be00d8
:10127000140037006000b8000f003700f50f2000a1
:10128000faff2f008502d1000a85d3008301e9000f
:10129000fcff3b008184620000046500890f74003c
:1012a000f2ff32008582ea000a85ea00818462004a
:1012b0000004650007fe070007f0a70001f0a0008a
:1012c0000081eb000200e0004f05be004f04be00ad
:1012d00000000600889fbe008a9fbe00841f780021
:1012e00037fe07004f00780011003300f0ff2f0099
:1012f000838f6c0006003b00040565000a00a70010
:101300000800370009f0a600100020000800370090
:10131000820f5400838f5c0003003900100020000e
:1013200001003e000000200009f0a7000000ea00d4
:101330004f05be004f04be000000e00000000600a4
:1013400014002000e3ff3700f4ff2f00e1ff370017
:10135000881f7800030478000300e00007003d00c8
:1013600060001000e080180060011900e0811900a1
:1013700002003b0001f02d000300370004000700cd
:1013800008f0a70001f0a0004f047800000006005c
:10139000889fbe008a9fbe00008270000402710018
:1013a00004827100260032000004be000200be006c
:1013b0006011b8006b092000950220000182cf0067
:1013c0000a0039000541b1000082cf000700390052
:1013d0000541b1000982cf00040039000541b10088
:1013e0000882cf00010039000541b10005425200da
:1013f000120032000a003b0082817100610164002a
:101400008100d1000080d3008984d3000884d300f8
:101410008b05e8000442e800f7ff3a0007003700b8
:101420000804440089844c00000048008180480082
:101430008b05e9000442e900f9ff3a00a5fd070029
:101440004f05be004f04be00000006000003be00b2
:10145000c6fd07006220e100020032000600be0067
:101460000000060085024100e30f20000328e10090
:1014700005003c00a3fe2f000328e10007003d000b
:101480000500200001003700f50f20002002200099
:10149000f04488006000b800080037001300200006
:1014a0008381520005003d008100d1000080d300ff
:1014b0008301e800fcff3a0005002000c72add0098
:1014c000f107b2008580700007f0a70001f0a000ce
:1014d00000000600889fbe008a9fbe008c9fbe0051
:1014e000e6fe0700850478000005be006420e100e8
:1014f00049003e006220e10003003200090035008f
:101500000bf8a300440032000bf8a30008003200df
:1015100010022000f0448800f0ff2f00f1ff2700a8
:101520003d00370001f82f00000020003a0037008e
:101530003d0007009ffc07000006be000a00be0039
:10154000324f200053f323007fff070006003400d2
:101550000c00be003400070096fc07000006be0029
:101560000a00be00020037008904e9000c00be003a
:101570002d000700aafd07002b0007008efc0700c6
:101580000001be000c00be00e8fc07000005be0024
:101590000001be00a2fd07000006be00a2f323006a
:1015a000430d2c0084fc0700809fbe000c00be0091
:1015b000d2e32700d3f02b0099fd07004f01be00b6
:1015c000dafc07000006be000a01be0094fd070019
:1015d0000a01be0078fc07000006be006148b900a1
:1015e00035fd07000005be0032082800e3952b00fa
:1015f0008bfd07000c01be006ffc07000006be005b
:101600000a00be000200280013f3230084fd070037
:101610000c01be0068fc07004f06be004f05be006f
:101620004f04be000000060003f023000200050086
:10163000000278008042eb00b4cf1200fdff3a00b8
:101640000080ea000000420000000600889fbe0003
:101650000004be000b00370009007800f4ff07000b
:10166000000178000800be001e000700e00f5000d7
:101670000a0032000800e8009900fb000a00070099
:1016800000047800e00f5400040032000042eb0038
:10169000984f1200f0ff3a000004eb0008007800b9
:1016a0004f04be0000000600881f78000002eb0017
:1016b0006103b800060478006121b800060041000b
:1016c000e842790081cf5200040032000402e800b1
:1016d000e0cf5200f8ff3a000000eb004f04780022
:1016e000000006000b00370030427800e04f520047
:1016f000030032000201e900b14f52000500320040
:101700000480fb00954278008582fb0005005000b4
:101710000000060081027800e00f5100f2ff3a005d
:08172000020078000000060041
:020000040000fa
:10172800415400000d0000004f4b00000041000034
:10173800542b0000434d0000474600003d31000097
:101748000d000000415400002b4300004d470000ed
:101758004c3d0000414c00004c0d000000520000c0
:1017680045430000205500004e520000454100004e
:1017780044000000415400002b4300004d47000086
:10178800523d0000004900006e6600006f00000036
:101798002c2200002b000000415400002b430000c5
:1017a8004e4d0000493d0000312c0000302c000057
:1017b800302c0000302c0000310d000000410000ea
:1017c800542b0000434d0000475300003d0000002b
:1017d8003e00000054720000656e00007574000041
:1017e8006e61000020740000656d000070650000e7
:1017f8007261000074750000726100003a200000f8
:101808002b000000507200006f7300006563000039
:101818006e61000020740000656d000070650000b6
:101828007261000074750000726100003a200000c7
:101838002b000000415400002b4300004d470000de
:08184800443d00000000000017
:020000040000fa
:101850000000fa0021e2a80021a2a9002182a9002b
:101860002162a8002122a9002102a90020e2a900ea
:1018700020c2a90020a2a9002082a9002062a900fc
:101880002042a9002022a9002002a90074062000fd
:101890004411880023e2a90023a2a90023c2a900c1
:1018a0002362a9002342a8002322a9002302a90041
:1018b00022e2a90022c2a90022a2a9002282a90034
:1018c0002262a9002242a9002222a9002202a90024
:1018d000540580000400a1000410a1000420a10010
:1018e000540588004405800004c0a00004d0a10075
:1018f00004e0a100440588008580a9008560a90056
:101900009580a9009560a800153a8000f40b20008e
:101910000483620064042000750520002774200001
:10192000844b7800854b7800864b78002535800005
:1019300004fc2f00048262000420a00024358800eb
:1019400015368000f40f2c008482620004302000e1
:101950000482720014368800153a800004042000c6
:1019600004837200640420007505200027742000a1
:10197000844b7800854b7800864b7800d922a800ec
:10198000d942a9000080fa00000006000200fa0017
:10199000004f7800000000001511800004102000a6
:1019a00004826200e00f5200fbff32009e4278008a
:1019b0000582fb00241188000080fa000000060068
:1019c0000200fa00000f7800050037001e027800c0
:1019d0001442780004407800ecff07001e0fe80076
:1019e0001e02780014427800e04f5200f7ff3a00e0
:1019f0000080fa00000006000200fa000002eb007e
:101a0000040f780005003700748120009e02420018
:101a100004c3b300844a78001e0fe8003406200097
:101a20009e027800848f5200f7ff34000080fa0095
:101a3000000006000800fa0020079800310798000f
:101a4000be0090002e00900000ff0700000278000a
:101a5000140798001e029000e00f520006003200aa
:101a60009e0290002e029000048252000402e800c0
:101a7000040f7800020037000002eb00040f78002a
:101a80001e02780004427800044078000080fa00ca
:101a9000000006000000fa00a4882000144278002c
:101aa000e04f5200050032000042eb000440780095
:101ab0008ae8b7000002eb0064448800ceff07000c
:101ac00000b42400c1042000f20207000080fa00e4
:101ad000000006000000fa0040b92800b8ff070027
:101ae000047d2000444488000042eb00044078005c
:101af0008ae8b7000002eb00044088000000000004
:101b000081b9280070812000caff070000427800d8
:101b1000e04f520004003a00a488200014427800ec
:101b2000e04f5200f6ff320081b92800708120009a
:101b3000c0ff0700004278000482fb0004408800d8
:101b400004408000e00f5200020032001400200028
:101b500064448800cfff07000080fa000000060000
:101b60000000fa00b0b9280095ff070084bb2000f0
:101b7000444488000042eb00044078008ae8b70043
:101b80000002eb00044088000000000081b928003a
:101b900070812000a7ff070000427800e04f52004c
:101ba00004003a00a488200014427800e04f52005c
:101bb000f6ff320081b92800708120009dff0700e8
:101bc000004278000482fb0004408800044080004a
:101bd000e00f52000200320024002000644488001c
:101be000acff07000080fa00000006000000fa00c9
:101bf00060ba280072ff070084382100444488003e
:101c00000042eb00044078008ae8b7000002eb00d5
:101c1000044088000000000031bb280070812000d3
:101c200084ff070000427800e04f520004003a00b1
:101c3000a488200014427800e04f5200f6ff3200e2
:101c400031bb2800708120007aff07000042780035
:101c50000482fb000440880004408000e40252003b
:101c6000748120000482420014427800044078000d
:101c700002e8b700340020006444880085ff0700b4
:101c800000b42400c1042000820207000080fa0092
:101c9000000006000000fa00e0bb280048ff070033
:101ca00024802000144278000440780037ff0700a9
:101cb000d0c0b30035ff07008438210044448800b9
:101cc0000042eb00044078008ae8b7000002eb0015
:101cd000044088000000000071bc280070812000d2
:101ce00054ff070000427800e04f520004003a0021
:101cf000a488200014427800e04f5200f6ff320022
:101d000071bc2800708120004aff07000042780063
:101d10000482fb000440880004408000e00f520071
:101d200008003200c1bc28007081200041ff07007c
:101d3000004278000482fb00244088004400200018
:101d4000644488000042eb000440780006e8b700d5
:101d50000c00370064802000144278008482fb006d
:101d600074802000848242000042eb00844a7800a4
:101d700064802000144278000442e80004407800a7
:101d800006e8b7006480200014427800ef4f52004c
:101d9000f0ff36000042eb000440780006e8b70090
:101da0001300370064802000144278000483fb0095
:101db00064802000144278008482fb00244080006c
:101dc0008482420074812000048242001442780020
:101dd0007580200085024300844a780064802000da
:101de000144278000442e8000440780006e8b70096
:101df00064802000144278008482fb00244080002c
:101e0000848242007481200004824200944278005f
:101e1000c4c2b30084cf5200e2ff3a001dff0700a6
:101e20000080fa00000006000200fa00881f780017
:101e300000bd2800e2fe070000242400f10020007d
:101e400014020700ecfe070030be2800dcfe07008d
:101e500074802000040f78000042eb0004407800fa
:101e600006e8b7000d0037006480200014427800b7
:101e70008482fb00748020000482420014427800b7
:101e800004407800c1fe07006480200014427800fe
:101e90000442e8000440780006e8b70064802000af
:101ea000144278000484fb001e007800e0fd070067
:101eb00000027800840f5400ebff3900d0c0b3005b
:101ec000b2fe0700843e2000444488000042eb003c
:101ed000044078008ae8b7000002eb000440880064
:101ee00000000000c1be280070812000d1fe070064
:101ef00000427800e04f520004003a00a48820001d
:101f000014427800e04f5200f6ff3200c1be2800b4
:101f100070812000c7fe0700004278000482fb00a9
:101f20000440880004408000e00f5200120032009c
:101f3000e0be2800a2fe0700b0872000a0fe070038
:101f400030c4b30091fe0700d0c0b3008ffe07007d
:101f500060c028009afe07001088200098fe070045
:101f600030c4b30089fe0700d0c0b30087fe07006d
:101f7000a0c1b30085fe070004712200444488001c
:101f80000042eb00044078008ae8b7000002eb0052
:101f9000044088000000000081b928007081200002
:101fa000a4fe070000427800e04f520004003a000f
:101fb000a488200014427800e04f5200f6ff32005f
:101fc00081b92800708120009afe07000042780045
:101fd0000482fb000440880004408000e00f5200af
:101fe000020032005400200064448800a9fe07006b
:101ff0004f0478000080fa00000006000000fa009c
:10200000e0c128006efe0700248020001442780002
:10201000044078005dfe0700d0c0b3005bfe0700ff
:10202000047d2000444488000042eb000440780016
:102030008ae8b7000002eb000440880000000000be
:1020400081b92800708120007afe070000427800e4
:10205000e04f520004003a00a488200014427800a7
:10206000e04f5200f6ff320081b928007081200055
:1020700070fe0700004278000482fb0004408800e4
:1020800004408000e00f5200020032000002eb002a
:10209000644488007ffe07000080fa00000006000c
:1020a0000000fa00e0c2a900e4c2a900002c21004f
:1020b0000100200077010700e0c2a8008025200071
:1020c00001002000730107001517800004042000a0
:1020d00004826200e00f520005003a00002c21004b
:1020e000010020006b0107000042eb0004003700f4
:1020f000002c2100010020006601070014c0b3007d
:10210000044078000080fa00000006000400fa0095
:1021100020479800e0c2a9000002eb00040f7800fd
:102120000002eb00040f78001a0037002e429000e6
:102130008482fb001e02780004aade0061026200b5
:1021400004427800e04f520009003200e4c2a900c6
:10215000c0032000010020004e010700e4c2a800d7
:1021600000282000010020004a0107000800370075
:10217000e4c2a900802520000100200045010700dd
:10218000e4c2a80040062000010020004101070031
:102190001e0fe8001e027800e70f5200e3ff340034
:1021a0000080fa00000006000400fa000042eb0084
:1021b000044f7800e0c2a8000002eb00140798006a
:1021c0000002eb001407980019003700e0c2a900d4
:1021d000e4c2a900c0032000010020002d01070077
:1021e000e0c2a800a005200001002000290107008e
:1021f000151780000404200004826200e00f5200e2
:1022000005003200150020001e029000042add00a7
:10221000044278001e4f720060222000010020005e
:102220001c0107001e0290000402e8001407980039
:102230001e029000e70f5200e4ff34001e427800b7
:10224000044078000080fa00000006000800fa0050
:1022500093ff070000427800e04f520024003a004c
:10226000c0ccb300a9ff070040c4b300a7ff07001c
:1022700000202100a10720000601070088ff0700b9
:10228000c0ccb300a1ff0700e0cbb3009fff070065
:10229000c5ff07000042780044479800c2ff0700ce
:1022a00000427800544798005e4290000482fb0090
:1022b000c822dd004e4290000482fb0004827200be
:1022c000340798003e029000050020000400be0084
:1022d000fcf907000002be000200200003182400e1
:1022e0000400be0091f907000002be00048fbe008a
:1022f0001e02be000400be000080fa0000000600be
:102300000a00fa0030079800410798000002eb002d
:10231000040f78004e0290000402e90014079800b0
:10232000180037001e027800be02900004824200ae
:10233000144278000402fb00240798001e02780073
:10234000be029000848242001e0290003e03900074
:102350000402430014427800844a78001e02900070
:10236000be029000848242002e0290000442780057
:10237000844a78001e0fe8001e0290000402e90063
:10238000140798001e0290009e027800848f52006d
:10239000e4ff35000080fa00000006000800fa00a3
:1023a0001007980021079800320798000002eb0000
:1023b000040f7800120037001e027800ae02900071
:1023c000848242001e039000a40020001100090036
:1023d0000403d80001027800044278000443b000ee
:1023e000844a78001e0fe8009e029000a40020009e
:1023f000110009008402d800000278001407980038
:102400001e029000e00f5200ebff3a00060037007a
:102410001e027800ae0290008482420004c3b30022
:10242000844a78001e0fe8003e0290009e02780069
:10243000848f5200f6ff35009e0078002e00900039
:10244000afff07001e027800ae02900084824200b7
:102450000042eb00844a78001e02780004007800f5
:102460000080fa00000006001000fa00881f7800c3
:10247000400798005107980062079800730798007a
:102480004e009000de0090006af907000002be00d6
:10249000040f78001e027800cfa2de000400be0008
:1024a00085f907000002be000401be004e00900046
:1024b000de009000bff807000002be00140798007d
:1024c000250798000001eb00ee0090001e00780048
:1024d000b2ff070000027800340798007e029000e7
:1024e000e00f5200230032003e029000ee02900006
:1024f00084824200e4c2b300844a78007e029000e5
:10250000cfa2de000400be006bf907000002be008f
:102510000401be000000200001122400f4f90700ad
:102520000002be000401be001e009000ae0090003c
:10253000bbf907000002be001407980025079800a9
:102540003e0290000402e800ee0290000484420083
:102550001e009000ae00900036f907000002be0099
:10256000040278007e019000880078000400780062
:102570008aff07004f0478000080fa000000060080
:102580000000fa00e0c2a900e4c2a800d8c2a90075
:10259000dcc2a9000080fa00000006000000fa007a
:1025a00005e1a9008460a90005a1a80004c1a90053
:1025b000240880000440a1000450a10024088800e1
:1025c0000441a9000421a9002405800004c0a00042
:1025d00004d0a10004e0a100240588009460a800b4
:1025e00004712200140888000002eb00040888002f
:0c25f00005e1a8000080fa0000000600d1
:020000040000fa
:1025fc009c08000002000000000000008e08000093
:10260c000a000000020000000000000000000000b2
:10261c00000000000000000098080000040000000a
:10262c000200000000000000000000000008000094
:10263c008e000000000000009e0800000200000058
:08264c00000000000000000086
:020000040000fa
:102654000000fa0040a7a9004567a900243a8000b9
:1026640004c0a10004d0a10004e0a100243a880021
:10267400243a80000480a1000490a10004a0a100d9
:10268400243a880045e7a9000080fa00000006000b
:020000040000fa
:10269400f03fb1000180b10006003500ee030900ef
:1026a40000000000403fb1000180b100fbff3d008d
:1026b4001000b000203fb000020035000080090087
:0826c400000000000000060008
:020000040000fa
:020000040005f5
:0457f800fff90000b5
:020000040000fa
:020000040005f5
:0457fc007f7f0000ab
:00000001FF
